:100000000C942C040C9473040C9473040C947304DB
:100010000C9473040C9473040C9473040C94730484
:100020000C9473040C9473040C94641E0C94371F8A
:100030000C94CF150C9473040C9473040C947304F7
:100040000C9473040C9473040C9473040C94730454
:100050000C9473040C9437160C9473040C9473046E
:100060000C9473040C9473040C9473040C94730434
:100070000C9473040C9473040C9473040C94730424
:100080000C9473040C9473040C9473040C94730414
:100090000C9473040C9473040C9473040C94730404
:1000A0000C9473040C9473040C94730429001400CE
:1000B0001A000800150017001C0018000C001200A0
:1000C00013002A002B0004001600070009000A0094
:1000D0000B000D000E000F0033002800E1001D0092
:1000E0001B00060019000500110010003600370043
:1000F00038003200E000E300E200640010502C0001
:100100000000115050004F005200510001001E002D
:100110001F002000210022002300240025002600CB
:100120002700010001003A003B003C003D003E007A
:100130003F002F00AA00AE00A9000100010040000E
:10014000410042004300440045003000AC00AD00D7
:10015000AB0001000100010001000100105001008E
:100160000000115001000100010001000100010028
:100170000100010001000100010001000100010077
:100180000100010001000100010001000100010067
:100190000100010001000100010001000100010057
:1001A0000100010001000100010001000100010047
:1001B0000100010001000100010001000100010037
:1001C0000000010001000100010001000100010028
:1001D0000100010001000100010001000100010017
:1001E0000100010001000100010001000100010007
:1001F00001000100010001000100010001000100F7
:1002000001000100010001000100010001000100E6
:1002100001000100010001000100010001000100D6
:1002200000000100010001000100010001000100C7
:1002300001000100010001000100010001000100B6
:1002400001000100010001000100010001000100A6
:100250000100010001000100010001000100010096
:100260000100010001000100010001000100010086
:100270000100010001000100010001000100010076
:100280000000010001000100010001000100010067
:100290000100010001000100010001000100010056
:1002A0000100010001000100010001000100010046
:1002B0000100010001000100010001000100010036
:1002C0000100010001000100010001000100010026
:1002D0000100010001000100010001000100010016
:1002E0000000010001000100010001000100010007
:1002F00001000100010001000100010001000100F6
:1003000001000100010001000100010001000100E5
:1003100001000100010001000100010001000100D5
:1003200001000100010001000100010001000100C5
:1003300001000100010001000100010001000100B5
:1003400000000100010001000100010001000100A6
:100350000100010001000100010001000100010095
:100360000100010001000100010001000100010085
:100370000100010001000100010001000100010075
:100380000100010001000100010001000100010065
:100390000100010001000100010001000100010055
:1003A0000000010001000100010001000100010046
:1003B0000100010001000100010001000100010035
:1003C0000100010001000100010001000100010025
:1003D0000100010001000100010001000100010015
:1003E0000100010001000100010001000100010005
:1003F00001000100010001000100010001000100F5
:1004000000000100010001000100010001000100E5
:1004100001000100010001000100010001000100D4
:1004200001000100010001000100010001000100C4
:1004300001000100010001000100010001000100B4
:1004400001000100010001000100010001000100A4
:100450000100010001000100010001000100010094
:100460000000010001000100010001000100010085
:100470000100010001000100010001000100010074
:100480000100010001000100010001000100010064
:100490000100010001000100010001000100010054
:1004A0000100010001000100010001000100010044
:1004B0000100010001000100010001000100010034
:1004C0000000010001000100010001000100010025
:1004D0000100010001000100010001000100010014
:1004E0000100010001000100010001000100010004
:1004F00001000100010001000100010001000100F4
:1005000001000100010001000100010001000100E3
:1005100001000100010001000100010001000100D3
:1005200000000100010001000100010001000100C4
:1005300001000100010001000100010001000100B3
:1005400001000100010001000100010001000100A3
:100550000100010001000100010001000100010093
:100560000100010001000100010001000100010083
:100570000100010001000100010001000100010073
:100580000000010001000100010001000100010064
:100590000100010001000100010001000100010053
:1005A0000100010001000100010001000100010043
:1005B0000100010001000100010001000100010033
:1005C0000100010001000100010001000100010023
:1005D0000100010001000100010001000100010013
:1005E0000000010001000100010001000100010004
:1005F00001000100010001000100010001000100F3
:1006000001000100010001000100010001000100E2
:1006100001000100010001000100010001000100D2
:1006200001000100010001000100010001000100C2
:1006300001000100010001000100010001000100B2
:1006400000000100010001000100010001000100A3
:100650000100010001000100010001000100010092
:100660000100010001000100010001000100010082
:100670000100010001000100010001000100010072
:100680000100010001000100010001000100010062
:100690000100010001000100010001000100010052
:1006A00000000100010001000100010012036B00C5
:1006B0006500790062006F00610072006400000054
:1006C000160371006D006B006200750069006C001C
:1006D00064006500720000000403090409026D0053
:1006E000040100A0FA09040000010301010009212E
:1006F000110100012240000705810308000A0904D6
:1007000001000103010200092111010001224D0035
:100710000705820308000A09040200010300000023
:100720000921110100012236000705830308000A90
:100730000904030001030000000921110100012246
:100740003900070584032000011201100100000098
:1007500008EDFE606001000102000105010906A12B
:1007600001050719E029E7150025019508750181A4
:100770000205081901290595057501910295017574
:100780000391010507190029F71500250195F87552
:10079000018102C005010980A10185021601002620
:1007A00003001A81002A8300751095018100C0059D
:1007B0000C0901A1018503160100269C021A010003
:1007C0002A9C02751095018100C005010902A10152
:1007D0000901A10005091901290515002501950543
:1007E0007501810295017503810105010930093107
:1007F0001581257F95027508810609381581257FA9
:10080000950175088106050C0A38021581257F952A
:100810000175088106C0C005010906A10105071977
:10082000E029E715002501950875018102950175FC
:1008300008810105081901290595057501910295A1
:1008400001750391010507190029FF150026FF0016
:10085000950675088100C00011241FBECFEFDAE0B5
:10086000DEBFCDBF04B603FE27C080913002909159
:100870003102A0913202B09133028730904BA740F1
:10088000B04BD1F410923002109231021092320229
:100890001092330214BE84B7877F84BF0FB6F894DA
:1008A000A89580916000886180936000109260003C
:1008B0000FBEE0E0F8E3099511E0A0E0B1E0E6EF5B
:1008C000F4E402C005900D92A833B107D9F722E0F5
:1008D000A8E3B1E001C01D92A033B207E1F70E9486
:1008E000B31B0C9479220C94000090E080E00895F2
:1008F0000895089581E00895089581E008950C9485
:100900007A040E94480E2FEF84E39CE0215080403F
:100910009040E1F700C000000C945C16FF920F932A
:100920001F93CF93DF938C01FC01C081D181809113
:100930006C0181113FC082818823B9F1CE010E94F0
:10094000AF13F82E682FCE010E945513BE018F2DD4
:100950000E94D505EC01B8010E947F04882309F4A8
:100960004AC0B801CE010E94E507882309F443C0BC
:10097000C531F0E7DF0718F5C23080E7D80708F087
:100980004BC0C115E0E7DE0789F1C130D047D1F196
:1009900081E080933A0180933B01C801DF91CF91C0
:1009A0001F910F91FF900C947D04CE010E9484133F
:1009B000F82ECCCFCE010E94AF13BE01C9CFCC33ED
:1009C00080E7D80709F4ACC0CD33D04709F7F80168
:1009D0008281882309F4CBC010923B010E9401164A
:1009E000909339018093380180E2A7C0F801828199
:1009F00081110E94810480E0DF91CF911F910F91BE
:100A0000FF900895F80182818823A9F38091F00175
:100A100081608093F001EFCFF8018281882309F48F
:100A2000BCCF0E946015811102C00E9446150E9431
:100A30007D1590E09093220280932102FE01E35005
:100A4000F047809121028160E231F105C8F4E55D53
:100A5000FA4F0C9429223D0549054D0551055505D0
:100A600059055D056105650569056D057105750526
:100A700079057D05810585058905809121028260C2
:100A800080932102809121020E9481150E94480ECC
:100A9000B2CF809121028460F3CF809121028860DF
:100AA000EFCF809121028061EBCF809121028062A3
:100AB000E7CF809121028064E3CF8091210280689A
:100AC000DFCF809121028460EACF809121028E7F66
:100AD000D7CF809121028D7FD3CF809121028B7F50
:100AE000CFCF80912102877FCBCF809121028F7E53
:100AF000C7CF809121028F7DC3CF809121028F7B50
:100B0000BFCF809121028F77BBCF809121028B7F55
:100B1000EACF90912102892F97FB87F98058B0CFB7
:100B2000F8018281882361F010923A010E94011637
:100B3000909339018093380182E00E94D20B5BCF01
:100B400080913A0181110FC0809138019091390153
:100B50000E940D16883C910530F486E20E94A70A97
:100B600086E20E94830B82E00E94D90B44CF8091E1
:100B70003B0181110FC080913801909139010E9491
:100B80000D16883C910530F487E20E94A70A87E29F
:100B90000E94830B80E2E8CF0C9434080C94360852
:100BA0000C947C040C94D0050895972F70E02CE0F1
:100BB000929F600D711D1124FB0190E3899FE00D50
:100BC000F11D1124EE0FFF1FE455FF4F8591949105
:100BD0000895FC01EE0FFF1FE455F94F85919491A4
:100BE00008950E94D5050E946407811520E49207AC
:100BF00008F08DC0811540E3940708F0E8C0803EFE
:100C0000910508F071C0803C910508F0CCC0883A8D
:100C1000910580F4853A910508F0CAC081309105AC
:100C200009F46EC020F08430910508F069C090E0AE
:100C300080E008958D3B9105D0F7883A910509F43D
:100C400004C1893A910509F403C18A3A910509F46E
:100C500002C18B3A910509F401C18C3A910509F45E
:100C600000C18B3B910509F4FFC08C3B910509F451
:100C7000FEC08D3A910509F4FDC0803B910509F451
:100C8000FCC08E3A910509F4FBC08F3A910509F436
:100C9000FAC0813B910509F4F9C0823B910509F442
:100CA000F8C0833B910509F4F7C0843B910509F432
:100CB000F6C0853B910509F4F5C0863B910509F422
:100CC000F4C0873B910509F4F3C0883B910509F412
:100CD000F2C0893B910509F4F1C08A3B910509F402
:100CE000F0C080E094E408958F3F910509F048F446
:100CF000803F910508F067C0883E910508F097CFC6
:100D00000895811520E2920708F05FC008958115CB
:100D100043E5940760F5811522E5920708F062C06B
:100D2000811541E5940708F058C0811520E5920728
:100D300008F450C09C0154E0369527955A95E1F788
:100D4000922F9370482F437021E030E002C0220FB1
:100D5000331F4A95E2F73C68392B86958695837058
:100D600040E2849FC0011124822B932B08958115AA
:100D700045E5940750F4811524E5920708F446C030
:100D8000982F8827846F906A0895811546E5940707
:100D900008F450C09C0130569F702115304108F076
:100DA00046CF90620895805C91090E94E9050895FC
:100DB000853A910509F443C0863A910509F042C08D
:100DC00082E890E40895906508959F70EECF99278A
:100DD000906C08959F70906A0895982F8827816F6E
:100DE000906A0895AC014370552721E030E002C0BD
:100DF000220F331F4A95E2F78695869540E2849F3D
:100E0000C0011124822B932B9C680895AC01437080
:100E1000552721E030E002C0220F331F4A95E2F748
:100E20008695869540E2849FC0011124822B932BE6
:100E30009A680895982F882788279F71B2CF81E8F4
:100E400090E4089583E890E4089582EE94E4089590
:100E500089EE94E408958AEE94E4089585EB94E491
:100E6000089586EB94E4089583EB94E4089584EB6D
:100E700094E4089587EB94E408958CEC94E4089549
:100E80008DEC94E4089583E895E408958AE895E468
:100E9000089582E995E4089584E995E4089581E24E
:100EA00096E4089583E296E4089584E296E4089532
:100EB00085E296E4089586E296E4089587E296E452
:100EC00008958AE296E41CCF8238910549F1B0F486
:100ED0008133910509F45CC048F48932910509F425
:100EE00052C08A32910509F458C00895853391059E
:100EF00009F444C08933910599F00895833E910522
:100F000031F138F4803E910591F0823E9105B1F0C7
:100F10000895863E910511F1873E910541F10895AE
:100F2000209121022370C9F080EE90E00895209175
:100F3000210220FF12C089E390E008952091210250
:100F400022FF0BC024FF2EC090E080E00895209186
:100F5000210222FD2AC024FDF7CF0895209121020D
:100F600023FFFBCF24FDF0CF87EE90E00895209182
:100F7000210223FFF0CF86EE90E008952091210218
:100F800025FD16C008952091210225FD14C0089565
:100F90002091210226FD12C008952091210226FDF4
:100FA00010C0089583EE90E0089582EE90E00895D9
:100FB00089E290E0089585E390E008958AE290E068
:100FC000089581E390E0C9CF08950F931F93CF93C5
:100FD0008C01FB018281811106C0C1E08C2FCF9171
:100FE0001F910F910895C0914901C11125C005318C
:100FF000104799F70E94E40781E0809349010E941D
:101000000116909348018093470110923C01109281
:101010003E0110923D011092400110923F0110924A
:10102000420110924101109244011092430110922A
:10103000460110924501D2CF80914701909148011D
:101040000E940D16883C910540F680913C01E82FE6
:10105000F0E0EE0FFF1FE35CFE4F118300838F5F14
:1010600080933C01C0E0BACF0C9478040C947904CE
:10107000CF93DF9385B7806885BF85B7806885BFCC
:10108000AFE1B1E043E251E0C1E0D0E08D91E82F63
:10109000E295EF70F0E061A18F709E0101C0220F18
:1010A0008A95EAF7922F9095962391A382A1822B9D
:1010B00082A34A175B0751F7A3E1B1E04FE151E08A
:1010C000C1E0D0E08D91E82FE295EF70F0E061A1F2
:1010D0008F709E0101C0220F8A95EAF7922F90959A
:1010E000962391A382A1822B82A34A175B0751F713
:1010F000109253011092520110924B0110924A012A
:10110000109255011092540110924D0110924C0111
:10111000109257011092560110924F0110924E01F9
:1011200010925901109258011092510110925001E1
:10113000DF91CF910C94CC054F925F927F928F926A
:101140009F92AF92BF92CF92DF92EF92FF920F9356
:101150001F93CF93DF93CAE4D1E00FE111E093E254
:10116000A92E91E0B92EEE24E394F12C99249394C6
:10117000C880D98019821882D8018D918D01E82FFD
:10118000E295EF70F0E091A18F70970101C0220FFE
:101190008A95EAF7892F822B81A382A1822E8094DF
:1011A000882182A3B0EABA95F1F783E1482E81E065
:1011B000582E90E080E0D2017D912D01472F42957D
:1011C0004F7050E0DA0190967C90488159817F7091
:1011D000D70102C0AA0FBB1F7A95E2F7BD016721B4
:1011E00009F068C0B701082E02C0660F771F0A9485
:1011F000E2F7462B572B5983488301968C30910593
:10120000D1F681A1882281A282A1282B22A38881E4
:101210009981C816D90641F090925A010E94011690
:1012200090935C0180935B012296A016B10609F0B1
:101230009FCF80915A01882351F180915B01909159
:101240005C010E940D16069710F180914A01909161
:101250004B01909353018093520180914C019091E6
:101260004D01909355018093540180914E019091CE
:101270004F019093570180935601809150019091B6
:101280005101909359018093580110925A010E9484
:10129000CE0581E0DF91CF911F910F91FF90EF90EC
:1012A000DF90CF90BF90AF909F908F907F905F9096
:1012B0004F90089570E060E09CCFE82FF0E0EE0FD3
:1012C000FF1FEE5AFE4F80819181089508959093FB
:1012D0006201809361010895E0916101F0916201E2
:1012E000309721F00190F081E02D099480E008957D
:1012F000E0916101F0916201309721F00280F38169
:10130000E02D09940895E0916101F0916201309718
:1013100021F00480F581E02D0994089520915F016A
:10132000309160012817390771F090936001809324
:101330005F01E0916101F0916201309721F0068038
:10134000F781E02D0994089520915D0130915E01AF
:101350002817390771F090935E0180935D01E09149
:101360006101F0916201309721F00084F185E02D58
:101370000994089508950C94BA090E94F8150E94E2
:1013800038080C94C9165F926F927F928F929F9249
:10139000AF92BF92CF92DF92EF92FF920F931F9383
:1013A000CF93DF93CDB7DEB72A970FB6F894DEBFA1
:1013B0000FBECDBF0E949C0894E6A92E91E0B92EE5
:1013C00010E000E088248394912C502E802F0E94FE
:1013D0005D097C01F501C190D1905F01C816D90665
:1013E00009F45EC08091F00181FD0E94660990E0E1
:1013F00080E0CE24DF243401082E02C0660C771C66
:101400000A94E2F7960126213721232B09F443C0E1
:101410008E835F82E620F72081E0EF2809F480E0E8
:1014200088870E9401168160782F9A8789874E816C
:101430005F8168858A850E947D0A000F111FF8016F
:10144000EC59FE4F808191816826792671826082F5
:101450000E944D190E946C09909163018917B9F19E
:101460000E946C09809363012A960FB6F894DEBF40
:101470000FBECDBFDF91CF911F910F91FF90EF90E5
:10148000DF90CF90BF90AF909F908F907F906F90A4
:101490005F900C94D20501968C30910509F0ABCF8A
:1014A0000F5F1F4F0430110509F08FCF8FEF898335
:1014B0008A831B820E9401168160782F9D838C8312
:1014C00049815A816B818D810E947D0AC1CF2A9604
:1014D0000FB6F894DEBF0FBECDBFDF91CF911F9145
:1014E0000F91FF90EF90DF90CF90BF90AF909F90C3
:1014F0008F907F906F905F900895CF93DF93CDB7DB
:10150000DEB72B970FB6F894DEBF0FBECDBF4F836B
:10151000588769877A878B871E821D8285E0FE0146
:101520003796DE01119601900D928A95E1F7498177
:101530005A816B817C818D819E812B960FB6F894A8
:10154000DEBF0FBECDBFDF91CF910C94FA10882380
:1015500009F4D8C0823871F40E946C0981FDD2C0B0
:1015600089E30E944F140E94171589E30E948C148E
:101570000C941715833859F40E946C0980FDC2C081
:1015800083E50E944F140E94171583E5EFCF84383E
:1015900059F40E946C0982FDB5C087E40E944F1483
:1015A0000E94171587E4E2CF9CEF980F913A18F448
:1015B0000E944F14DDCF90E2980F983050F487705E
:1015C00091E001C0990F8A95EAF7892F0E94CE1405
:1015D000CFCF9BE5980F933070F4853A31F0863A7F
:1015E00039F083E890E00C948E0981E890E0FBCF1D
:1015F00082E890E0F8CF98E5980F953108F082C026
:10160000883A09F440C0893A09F440C08A3A09F49A
:1016100040C08B3A09F440C08C3A09F440C08B3B7F
:1016200009F440C08C3B09F440C08D3A09F440C035
:10163000803B09F440C08E3A09F440C08F3A09F467
:1016400040C0813B09F440C0823B09F440C0833B69
:1016500009F440C0843B09F440C0853B09F440C014
:10166000863B09F440C0873B09F440C0883B09F43D
:1016700040C0893B09F440C08A3B09F440C090E077
:1016800080E00C94A40982EE90E0FBCF89EE90E01C
:10169000F8CF8AEE90E0F5CF85EB90E0F2CF86EBC5
:1016A00090E0EFCF83EB90E0ECCF84EB90E0E9CFDC
:1016B00087EB90E0E6CF8CEC90E0E3CF8DEC90E010
:1016C000E0CF83E891E0DDCF8AE891E0DACF82E9EC
:1016D00091E0D7CF84E991E0D4CF81E292E0D1CFFD
:1016E00083E292E0CECF84E292E0CBCF85E292E03B
:1016F000C8CF86E292E0C5CF87E292E0C2CF8AE20D
:1017000092E0BFCF0895882309F44BC0823871F46A
:101710000E946C0981FF45C089E30E944F140E941A
:10172000171589E30E948C140C941715833859F40B
:101730000E946C0980FF35C083E50E944F140E940F
:10174000171583E5EFCF843859F40E946C0982FFA6
:1017500028C087E40E944F140E94171587E4E2CF47
:101760009CEF980F913AF0F290E2980F983050F475
:10177000877091E001C0990F8A95EAF7892F0E943E
:10178000D414D2CF9BE5980F933020F490E080E002
:101790000C948E09885A853120F490E080E00C94F6
:1017A000A4090895882321F00E94CE140C941715E3
:1017B0000895882321F00E94D4140C9417150895DD
:1017C0008F929F92AF92BF92DF92EF92FF920F9310
:1017D0001F93CF93DF937C01D62FC72FFC01058188
:1017E00002950F70128111110E94ED140E9448148D
:1017F000D82E882371F0112321F180E28D0F8830DB
:1018000000F182E00E9432140E94481491E0D82E28
:10181000D926EC2FE295EF70F0E0EF5EF34F0C94D9
:101820002922230C230C730C730CB50CD10C500C17
:10183000500CDC0C500C740D740DE70D500C500C5A
:10184000F00DD12CE6CF0C2F0F70C07F11F0029558
:10185000007F1123A9F0002359F080E28D0F88301A
:1018600010F0D11109C0802F0E94CE140E941715CC
:101870008D2F0E94A70A14C0802F0E94DF14F6CF7C
:101880008D2F0E94830B002359F080E28D0F88304A
:1018900010F0D11124C0802F0E94D4140E9417157B
:1018A000DD2009F4A4C10E94251480FDA0C1F70128
:1018B00012820E941F140E949912C7010E94030EF7
:1018C0000E941F14DF91CF911F910F91FF90EF9015
:1018D000DF90BF90AF909F908F900C94BA12802FA2
:1018E0000E94E514DBCFFC2FFF70BF2EC07FC032FB
:1018F00019F0B29480EFB822DD2369F0D13029F1DC
:10190000112369F1002359F0F701858180FFB0CFE1
:101910008F70858304C0112361F0011104C08B2DE9
:101920000E94D20BBDCF8B2D0130D1F70E94011543
:10193000B7CF011106C00E9404158B2D0E94D90B50
:10194000AFCF013009F4ACCFF6CF112321F0063030
:1019500008F0A6CFE4CF053008F0A2CFEECF0023E9
:1019600061F38D2F0E94830B9BCF8C2F86958695DC
:10197000837069F0813009F093CF8D2F9C2F937085
:10198000111102C090E080E00E94A40989CF8D2F40
:101990009C2F9370111102C090E080E00E948E098C
:1019A0007FCF8D2F112329F00E9456180E944219D3
:1019B00077CF0E94BE18FACF8C2F837009F047C0F2
:1019C00011116ECF2D2F229526952770220F220FF1
:1019D0006D2F6F70862E912CB12CA12C022E04C07D
:1019E000880C991CAA1CBB1C0A94D2F760E070E01A
:1019F000CB01D4FF0FC06FE070E080E090E004C046
:101A0000660F771F881F991F2A95D2F760957095EA
:101A100080959095C695C695C370C23051F080F4FC
:101A2000682979298A299B29C13071F00E944212C4
:101A300037CF682979298A299B290E945E1230CFE5
:101A40000E944212C501B4010E94261229CF869538
:101A5000112311F08C2F8170882309F421CF2D2FB1
:101A6000229526952770220F220F6D2F6F70862EDC
:101A7000912CB12CA12C022E04C0880C991CAA1CFC
:101A8000BB1C0A94D2F760E070E0CB01D4FF0FC01A
:101A90006FE070E080E090E004C0660F771F881F61
:101AA000991F2A95D2F76095709580959095C69567
:101AB000C695C370C23051F080F4682979298A290B
:101AC0009B29C13071F00E941C13EACE6829792944
:101AD0008A299B290E943813E3CE0E941C13C5015A
:101AE000B4010E940013DCCEE0E2ED0FE53108F016
:101AF00062C0F0E0E258F24F0C942922930D930D4E
:101B0000930D930D930D930D930D930D930D930DD5
:101B1000930D930D930D930D930D930DA00DAE0D9D
:101B2000B50DBC0DC60DDF708C2F8F71112321F008
:101B30000E9499128D2FF4CE0E94BA128D2FFECEE4
:101B4000112341F0053008F0ABCE8C2F8F710E942D
:101B5000DF12A6CE063008F0A3CEF7CF8C2F8F7100
:101B6000112339F00E9499129BCE8C2F8F71112373
:101B7000C9F30E94BA1294CE112329F08C2F8F71D1
:101B80000E9484128DCE0E947A128ACE112349F0CF
:101B9000CF718C2F0E94991263E08C2F0E94291420
:101BA0007FCE81E00E943214023008F479CE82E0C8
:101BB0000E94321475CE112329F0011159CE8C2FB9
:101BC0008F71D0CF0111CDCE8C2F8F71D2CF4C2FF2
:101BD0004F706D2FC7010E9475040E94A31160CE43
:101BE0004C2F4F706D2FC7010E94D40559CEDF9145
:101BF000CF911F910F91FF90EF90DF90BF90AF902A
:101C00009F908F9008950F931F93CF93DF93EC01D4
:101C1000988189812B813C81232B39F08F3F19F4E6
:101C200081E09F3F19F080E001C081E080FD17C096
:101C3000CE010E948E04882391F0688179818A8187
:101C40000E94FB138C010E9454130E941B12B801C6
:101C5000CE01DF91CF911F910F910C94E00BDF919A
:101C6000CF911F910F9108950E94ED140E94FE14D0
:101C70000E94C0140E9417150E94EF190E94421979
:101C800090E080E00E948E0990E080E00C94A4092E
:101C90000E94DC140C94340E0E94F113E92FE2959B
:101CA000EF70E250EE30E0F4F0E0E75AF14F0C94C0
:101CB0002922670E670E700E700E720E700E700E77
:101CC000700E670E670E770E700E700E770E803FE7
:101CD00019F020F4803E20F481E00895843FE1F380
:101CE00080E00895803EC0F3813FD1F7F5CF93FBAC
:101CF000882780F90895CF93DF9300D000D01F92FA
:101D0000CDB7DEB70F900F900F900F900F90DF912F
:101D1000CF910895CF93DF9300D000D000D0CDB7FE
:101D2000DEB726960FB6F894DEBF0FBECDBFDF91AB
:101D3000CF9108951F93CF93DF93C0916D0116E06B
:101D400080916E018C1304C0DF91CF911F91089593
:101D5000D0E01C9FF0011D9FF00D1124E159FE4FB2
:101D60004081518162817381848195810E948A0EB4
:101D70002196C770E5CF40919F015091A0016091DD
:101D8000A1017091A2018091A3019091A4010C94F2
:101D90008A0E1F93CF93DF938091A401807FD1F4AB
:101DA0008091A1018823B1F080916D01D0916E01E5
:101DB000B0919F01C091A0014091A2015091A30157
:101DC000A1E0BF3F09F0A0E0BA016095709516E070
:101DD000D81304C0DF91CF911F91089521E04115E0
:101DE000510521F02A2FCF3F09F020E090E020FD9F
:101DF00038C0189FF001199FF00D1124E159FE4FD2
:101E000021812C132EC020812B132BC02281211164
:101E100028C0238134812417350700F1241B350B9A
:101E2000283C3105F0F42091A4012F70206120930B
:101E3000A40126E0289FF001299FF00D1124EC5801
:101E4000FE4F80818F70806180838FE991E00E94D6
:101E5000030EDF91CF911F910C949A0E260F371F1E
:101E6000DFCF01968770B4CFAF92BF92CF92DF924F
:101E7000EF92FF920F931F93CF93DF93CDB7DEB70F
:101E800061970FB6F894DEBF0FBECDBF8C0185E021
:101E9000F801DE011D9601900D928A95E1F7D801B7
:101EA0004C9111965C9111971296EC9030919F0194
:101EB0006091A0018091A2019091A30121E000977F
:101EC00031F06F3F19F421E03F3F09F020E0B22FDD
:101ED000B170BB2E20FD80C1F801C380D480A090DA
:101EE000A101AA2009F427C1C816D906D0F1D6014C
:101EF000A81BB90BCD01FF24F394883C910508F091
:101F0000F12C8091A401982F907FFF2009F4CAC082
:101F1000911187C0FE2C651329C0341327C0E1102E
:101F200025C08F7080618093A4010E94BB0E8FE951
:101F300091E00E94030E8091A401F80185838F2D0A
:101F400061960FB6F894DEBF0FBECDBFDF91CF9183
:101F50001F910F91FF90EF90DF90CF90BF90AF90C7
:101F60000895809590958C0D9D1DC5CF81E0CD285D
:101F700031F05F3F19F481E04F3F09F080E080FDD0
:101F800024C081E08E25F82FF170DF2E80FF3FC046
:101F900080916D0120916E0136E0821318C04D874B
:101FA0005E878D859E850E94F113292F22952F70C3
:101FB000223008F1243030F59F7009F1D8011596D0
:101FC0009C91907FE1F4FB2CBACF80E0DCCF90E0D5
:101FD000389FF001399FF00D1124E159FE4F6181C6
:101FE000561306C06081461303C062816E110FC094
:101FF00001968770D2CF9F7011F0882321F3805E05
:10200000883008F3C8010E94030EBD2CDCCFEE20FF
:1020100009F495CF8091A40181608093A401F12CF3
:102020008ECF651312C0341310C0E1100EC0F8013A
:102030008583C8010E94030E86E0F801AFE9B1E094
:1020400001900D928A95E1F741C04D875E878D859D
:102050009E850E944C0E882309F4C8C0EE2009F426
:10206000C5C08091A401803270F020919F01309111
:10207000A00138872F831986DB86CA868C87CE011C
:1020800007960E94030E86E0F801AFE9B1E00190E7
:102090000D928A95E1F70E94C90E0E94BB0EFF24A3
:1020A000F3944DCF911115C07C2DD98AC88A6E2D1D
:1020B00089890E947B0E8FE991E00E94030E86E0E1
:1020C000EFE9F1E0DF011D928A95E9F70E94BB0E6E
:1020D00036CF651312C0341310C0E1100EC0F801E2
:1020E0008583C8010E94030EEFE9F1E086E0DF017D
:1020F0001D928A95E9F7FA2C22CF4D875E878D8550
:102100009E850E944C0E882309F470C0EE2009F4CD
:102110006DC08091A401803208F4B5CF20919F0159
:102120003091A0013A8329831B82DD82CC828E8389
:10213000CE010196A6CFC816D90638F1F601E81BE4
:10214000F90BCF01F12C883C910508F03DC0FE2C25
:10215000EE2009F44BC0651326C0341324C08091CF
:10216000A40180FD17C0982F907FA1F0D80115968B
:102170008C931597903F09F45CCF982F907F905FD8
:102180008F70892B15968C9354CF809590958C0DDC
:102190009D1DD8CF86E0F801AFE9B1E001900D9226
:1021A0008A95E1F7CCCE4D875E878D859E850E940E
:1021B0004C0E811168CF8091A40181608093A401AD
:1021C000C8010E94030EBBCE7C2DD98AC88A6E2D11
:1021D00089890E947B0E73CFEE2041F04D875E8788
:1021E0008D859E850E944C0E81114DCFC8010E94A5
:1021F000030E55CF1F93CF93DF93CDB7DEB72C9748
:102200000FB6F894DEBF0FBECDBF4F8358876987E6
:102210007A878B879C87CE0107960E94340F88238C
:1022200009F442C09F8188852A853B85232B39F09C
:102230008F3F19F481E09F3F19F080E001C081E0F9
:1022400080FD08C04F81588569857A858B859C857E
:102250000E948A0E16E080916D0190916E0189179F
:1022600009F467C0819FC001112481599E4F0E94CB
:10227000340F882309F45DC0E0916D011E9FF001C9
:102280001124E159FE4F4081518162817381848123
:1022900095810E948A0E80916D0190E00196877071
:1022A000992780936D01D7CF86E0FE013796DE0136
:1022B000119601900D928A95E1F79F8188852A8574
:1022C0003B85232B39F08F3F19F481E09F3F19F0B4
:1022D00080E001C081E080FDBDCF20916E0130E043
:1022E000C90101968770992740916D014817190619
:1022F00099F096E0929FD001939FB00D1124A159BF
:10230000BE4FFE01319601900D929A95E1F78093B0
:102310006E010E949A0E9ECF0E94480E10926E018E
:1023200010926D0186E0EFE9F1E0DF011D928A95E0
:10233000E9F72C960FB6F894DEBF0FBECDBFDF9144
:10234000CF911F910895EF92FF920F931F93CF9318
:10235000DF938C01892B81F0F12CEE24E394E801CA
:102360002196F8018491843770F4843008F05FC0BE
:102370008130B1F08230A1F1DF91CF911F910F91A7
:10238000FF90EF900895853709F44CC008F43DC0E4
:102390009CE7980F903780F78F770E94830B49C096
:1023A0000E5F1F4FFE01849190E2980F983060F409
:1023B0008770FE2D01C0FF0F8A95EAF78F2F0E94CC
:1023C000F0140E94171502C00E94A70A8F2D815099
:1023D00030F2EFE9FFE03197F1F700C00000F7CFEE
:1023E0000E5F1F4FFE01849190E2980F983050F4D9
:1023F0008770FE2D01C0FF0F8A95EAF78F2F0E948C
:10240000F614DFCF0E94830BE1CF0E5F1F4FFE015A
:10241000C491C150D8F28FE99FE00197F1F700C055
:102420000000F7CF0E5F1F4FFE01F490CFCF0E9448
:10243000A70A8E01CBCF08956093C7017093C8019E
:102440008093C9019093CA010C94340E0F931F938B
:102450000091C7011091C8012091C9013091CA01B2
:10246000DC01CB01802B912BA22BB32B8093C701D6
:102470009093C801A093C901B093CA011F910F9115
:102480000C94340E0F931F930091C7011091C80153
:102490002091C9013091CA01DC01CB018023912335
:1024A000A223B3238093C7019093C801A093C901CD
:1024B000B093CA011F910F910C94340E0F931F9388
:1024C0000091C7011091C8012091C9013091CA0142
:1024D000DC01CB0180279127A227B3278093C70176
:1024E0009093C801A093C901B093CA011F910F91A5
:1024F0000C94340E1092C3011092C4011092C501C5
:102500001092C6010C94340E41E050E060E070E09F
:1025100004C0440F551F661F771F8A95D2F740935A
:10252000C3015093C4016093C5017093C6010C941C
:10253000340E41E050E060E070E004C0440F551FED
:10254000661F771F8A95D2F78091C3019091C401CD
:10255000A091C501B091C601842B952BA62BB72B5A
:102560008093C3019093C401A093C501B093C601A9
:102570000C94340E41E050E060E070E004C0440F81
:10258000551F661F771F8A95D2F740955095609525
:1025900070958091C3019091C401A091C501B09143
:1025A000C60184239523A623B7238093C301909368
:1025B000C401A093C501B093C6010C94340E41E050
:1025C00050E060E070E004C0440F551F661F771FA5
:1025D0008A95D2F78091C3019091C401A091C50161
:1025E000B091C60184279527A627B7278093C301FA
:1025F0009093C401A093C501B093C6010C94340E0E
:102600000F931F930091C3011091C4012091C50144
:102610003091C601DC01CB01802B912BA22BB32B77
:102620008093C3019093C401A093C501B093C601E8
:102630001F910F910C94340E0F931F930091C301BF
:102640001091C4012091C5013091C601DC01CB017C
:1026500080239123A223B3238093C3019093C401C9
:10266000A093C501B093C6011F910F910C94340E35
:102670000F931F930091C3011091C4012091C501D4
:102680003091C601DC01CB0180279127A227B32717
:102690008093C3019093C401A093C501B093C60178
:1026A0001F910F910C94340E08952CE0929F800D91
:1026B0001124982F977071E001C0770F9A95EAF76F
:1026C00086958695869525E0829FC001112450E06D
:1026D00040E0A62FB0E0FC01E40FF51FEB55FE4FE4
:1026E00060819D01042E02C0369527950A94E2F779
:1026F0002170219526272723262720834F5F5F4FB0
:102700004530510541F708952CE0929F800D11242A
:10271000982F977086958695869525E0829FA001D3
:10272000112470E060E080E0FA01E60FF71FEB553E
:10273000FE4F208130E0092E02C0369527950A947D
:10274000E2F721703327062E01C0220F0A94EAF720
:10275000822B6F5F7F4F6530710531F70895BF920F
:10276000CF92DF92EF92FF920F931F93CF93DF935D
:102770008C01C090C301D090C401E090C501F090DD
:10278000C6018091C7019091C801A091C901B09183
:10279000CA01C82AD92AEA2AFB2ACFE1D0E0BC2EF6
:1027A000D701C6010C2E04C0B695A79597958795BD
:1027B0000A94D2F780FD0EC0219788F7B12C8B2D9B
:1027C000DF91CF911F910F91FF90EF90DF90CF900D
:1027D000BF900895B8018C2F0E94F105019761F315
:1027E000EECFCF93DF93EC010E94AF13BE01DF91D8
:1027F000CF910C94F1051F93CF93DF93EB01909150
:102800006C01992331F0CB01DF91CF911F910C9492
:10281000F113882379F0CB010E94AF13182F682F92
:10282000CE010E945513BE01812FDF91CF911F91E0
:102830000C94F105CB010E948413182FF4CF8091E2
:10284000CB0185958595859508958091CB018770FD
:10285000089598E0899F90011124622B6093CB0129
:102860000C9499129091CB01809589238093CB0190
:10287000282F277061F4282F082E000C330B921795
:10288000130629F08595859585950C94BA120895BF
:102890009091CB01977081E009F480E008959091C8
:1028A00012019923E1F09091210297FF18C0E82FBF
:1028B000E695E695E695EF3139F1209100013091EA
:1028C0000101E20FF32FF11D877021E030E001C01C
:1028D000220F8A95EAF78181822B818308952091C6
:1028E000000130910101F90132969FEF40E05191D2
:1028F000851751F09F3F19F4511101C0942F4F5F7C
:102900004E31A9F79F3F09F40895290F311D97FD16
:102910003A95F90182830895909112019923F1F07B
:102920009091210297FF1AC0E82FE695E695E6956B
:10293000EF3129F12091000130910101E20FF32FD5
:10294000F11D282F277081E090E001C0880F2A95A3
:10295000EAF7809591818923818308952091000170
:1029600030910101F9013296205E3F4F9191891318
:1029700003C0DF0111971C92E217F307B9F708951E
:1029800081E090E0E0910001F0910101E80FF91F72
:102990001082019680329105A9F708959091EF0178
:1029A000892B8093EF010895982F90958091EF01E6
:1029B00089238093EF0108951092EF01089590917B
:1029C000EE01892B8093EE010895982F90958091C8
:1029D000EE0189238093EE0108951092EE0108958F
:1029E0009091ED01892B8093ED010895982F90959A
:1029F0008091ED0189238093ED0108951092ED01FE
:102A000008958093CC0108951092CC0108952091EF
:102A1000000130910101F9013196205E3F4F80E0C5
:102A2000919191118F5FE217F307D1F70895E0912B
:102A30000001F09101018091EF018083E09100019C
:102A4000F091010180819091EE01892B8083E091CA
:102A50000001F091010180819091ED01892B80832B
:102A60009091CC01992361F0E0910001F091010176
:102A70008081892B80830E94071581111092CC01DF
:102A800080910001909101010C9478096DEE7EEF28
:102A900090E080E00E94632260E082E090E00E948B
:102AA000512260E083E090E00E94512260E084E0E7
:102AB00090E00E94512260E085E090E00C94512269
:102AC00090E080E00E944B2221E08D3E9E4F09F075
:102AD00020E0822F089582E090E00C944322682F3A
:102AE00082E090E00C94512283E090E00C94432229
:102AF000682F83E090E00C94512284E090E00C94E5
:102B00004322682F84E090E00C94512280912702A8
:102B1000843039F11092F10188E190E020E40FB6A1
:102B2000F894A895809360000FBE2093600080E029
:102B30000E94D20583B7817F846083BF83B78160A1
:102B400083BF7894889583B78E7F83BF0FB6F89440
:102B5000A895809160008861809360001092600069
:102B60000FBE089508950895CF930E94B2150E9454
:102B70009C080E94B315C0E08C2F0E945D09892B30
:102B800031F4CF5FC430C1F780E0CF91089581E088
:102B9000FCCF0E94480E0E946C090C94D2051F9233
:102BA0000F920FB60F9211248F939F93AF93BF9301
:102BB0008091F101811113C080911D0290911E023C
:102BC000A0911F02B09120024196A11DB11D8093DA
:102BD0001D0290931E02A0931F02B0932002BF918A
:102BE000AF919F918F910F900FBE0F901F901895EE
:102BF00082E084BD93E095BD9AEF97BD80936E000F
:102C000008952FB7F89480911D0290911E02A09113
:102C10001F02B09120022FBF0895CF92DF92EF9252
:102C2000FF920F931F932FB7F89440911D0250917C
:102C30001E0260911F02709120022FBF6A017B016A
:102C4000EE24FF248C0130E020E0C016D106E2061D
:102C5000F30650F0481B590BCA011F910F91FF90CA
:102C6000EF90DF90CF90089541505109F3CF1F921C
:102C70000F920FB60F9211248F939F93AF93BF9330
:102C800080911D0290911E02A0911F02B09120021E
:102C90000196A11DB11D80931D0290931E02A09369
:102CA0001F02B0932002BF91AF919F918F910F901F
:102CB0000FBE0F901F9018950E94E91DF8942FEFFA
:102CC00087EA91E6215080409040E1F700C0000083
:102CD00087E090EBDC018093300290933102A09367
:102CE0003202B093330288E19CE00FB6F894A895C5
:102CF000809360000FBE90936000FFCFAF92BF92B1
:102D0000CF92DF92EF92FF920F931F93CF93C0E089
:102D1000CC24C394D12CE82EF12C8C2F0E945D0979
:102D20005C0110E000E0C601002E02C0880F991F70
:102D30000A94E2F78A219B21892B99F40F5F1F4F98
:102D40000C30110581F7CF5FC43039F780E0CF91A7
:102D50001F910F91FF90EF90DF90CF90BF90AF90B9
:102D60000895602F7C2F80E00E94D505E816F906B3
:102D700029F781E0ECCFCF93C82F8CE20E947E161A
:102D8000882321F08C2FCF910C947E1680E0CF9178
:102D90000895CF930E946015811102C00E944615CC
:102DA000C5E6C15009F0D1C089E20E94BB1681116D
:102DB000F8C08AE20E94BB1681110E94461585E088
:102DC0000E94BB1681110E945C160E946B158093B5
:102DD000F00187E00E94BB16882371F08BE10E940E
:102DE000BB16882309F4BAC09091F001892F8D7F1A
:102DF00091FF82608093F0018091F0010E946F1535
:102E00000E947D1590E0909322028093210280EE33
:102E10000E94BB16882341F090912102892F8E7F5A
:102E200090FF81608093210289E30E94BB16882372
:102E300041F090912102892F8D7F91FF82608093D4
:102E4000210282EE0E94BB16882341F0909121025C
:102E5000892F8B7F92FF84608093210286EE0E94EF
:102E6000BB16882341F090912102892F877F93FF21
:102E700088608093210283EE0E94BB16882341F074
:102E800090912102892F8F7E94FF8061809321028F
:102E900085E30E94BB16882341F090912102892F7F
:102EA0008F7D95FF80628093210281E30E94BB1693
:102EB000882341F090912102892F8F7B96FF8064B7
:102EC0008093210281E10E94BB16882341F09091FA
:102ED0002102892F97FB87F98058809321028091E6
:102EE00021020E94811587E20E94BB16C82F8EE145
:102EF0000E94BB168111C2608FE10E94BB16811136
:102F0000C46080E20E94BB168111C86081E20E9409
:102F1000BB168111C06182E20E94BB168111C062A2
:102F200083E20E94BB168111C06484E20E94BB163A
:102F3000882389F1C0688C2F0E9478156C2F70E06F
:102F400090E080E0CF910C941C120E949C088FE3CB
:102F50009CE90197F1F700C0000023CF8EE00E94AA
:102F6000BB16882339F09091F001892F8B7F92FF57
:102F7000846040CF80E10E94BB169091F0018823CD
:102F800029F0892F877F93FF886034CF892F8E7F28
:102F900090FF81602FCFC111CECF0E947415682F92
:102FA000CECFCF9108958091F40180FF12C060913F
:102FB000050185E0689FB0011124759567957595A9
:102FC000679560387105A8F561157105A1F1862F27
:102FD000089581FF09C06091050185E0689FB001F7
:102FE000112475956795EDCF82FF07C060910501AB
:102FF00085E0689FB0011124E4CF2091F5012223E0
:10300000A9F0909104016091050185E0689FB001ED
:1030100011242917B0F6269FA001279F500D1124D7
:10302000692F70E0CA010E941522CBCF65E070E0E5
:10303000CECF8FE7089581E008958091F40180FF5D
:103040000CC06091030170E0759567957595679563
:103050006115710549F1862F089581FF06C06091C1
:10306000030170E075956795F3CF6091030182FDD0
:103070000BC09091F5019923A1F06091020180911C
:103080000301961738F0682F70E06038710500F37F
:103090008FE70895899FC001112470E00E941522D6
:1030A000F4CF61E070E0D7CF81E00895803F31F444
:1030B0000E94D31781958093F8010895813F19F4F8
:1030C0000E94D317F8CF823F31F40E94D317819525
:1030D0008093F7010895833F19F40E94D317F8CF26
:1030E000893F29F40E941D188093F90108958A3FB1
:1030F00021F40E941D188195F7CF8B3F31F40E9477
:103100001D1881958093FA0108958C3F19F40E944F
:103110001D18F8CF843F31F48091F60181608093CF
:10312000F6010895853F21F48091F6018260F7CF82
:10313000863F21F48091F6018460F1CF873F21F42E
:103140008091F6018860EBCF883F21F48091F601F1
:103150008061E5CF8D3F31F48091F40181608093EF
:10316000F40108958E3F21F48091F4018260F7CF3D
:103170008F3FB9F78091F4018460F1CF803FC1F4B3
:103180008091F80187FD1092F8018091F70181117B
:103190000EC08091F80181110AC08091F90181115E
:1031A00006C08091FA01811102C01092F5010895C4
:1031B000813F29F48091F80118162CF3E6CF909105
:1031C000F701823F29F497FFE0CF1092F701DDCF9E
:1031D000833F19F41916CCF3D8CF893F39F4809185
:1031E000F901181694F61092F901CFCF8A3F29F40D
:1031F0008091F90187FFC9CFF6CF8B3F39F48091D9
:10320000FA0187FFC2CF1092FA01BFCF8C3F29F499
:103210008091FA011816BCF3B8CF843F31F4809145
:10322000F6018E7F8093F601B0CF853F21F4809127
:10323000F6018D7FF7CF863F21F48091F6018B7FD9
:10324000F1CF873F21F48091F601877FEBCF883F54
:1032500021F48091F6018F7EE5CF8D3F31F480918E
:10326000F4018E7F8093F40190CF8E3F21F4809102
:10327000F4018D7FF7CF8F3F09F087CF8091F40164
:103280008B7FF0CF86EF91E00E9483090E940116A8
:103290009093F3018093F20108951F93CF93DF93EE
:1032A0008091F2019091F3010E940D16AC01909172
:1032B000F5012091060130E0911106C0209107012F
:1032C0008AE0289F900111244217530780F08091D3
:1032D000F701C091F8011091F901D091FA01811123
:1032E0000AC0C11178C0111176C0D11174C0DF912C
:1032F000CF911F9108959F3F19F09F5F9093F50123
:10330000181624F40E94D3178093F7018091F701D7
:1033100087FF05C00E94D31781958093F7011C1683
:1033200024F40E94D3178093F8018091F80187FF5D
:1033300005C00E94D31781958093F8016091F70131
:10334000662331F1C091F801CC2311F1062E000C57
:10335000770B880B990B0E941C2123E333E343E393
:103360005FE30E9480210E94E4206093F7016C2FAC
:10337000CC0F770B880B990B0E941C2123E333E3BE
:1033800043E35FE30E9480210E94E4206093F80100
:10339000111624F40E941D188093F9018091F901FF
:1033A00087FF05C00E941D1881958093F9011D16A5
:1033B00024F40E941D188093FA018091FA0187FF7E
:1033C00005C00E941D1881958093FA01DF91CF916D
:1033D0001F910C9442199F3F09F08FCFA0CF85E039
:1033E000E6EFF1E0DF011D928A95E9F71092F50111
:1033F0001092F401089580911B020895CF93DF93FA
:1034000000D01F92CDB7DEB79C0180912702843097
:1034100019F593E099833B832A839093E9008FEF1A
:103420009091E800815095FD06C095ED9A95F1F7D1
:1034300000008111F5CF8091E80085FF0DC050E0BC
:1034400040E063E070E0CE0101960E94591C80913B
:10345000E8008E778093E8000F900F900F90DF9137
:10346000CF910895CF93DF9300D01F92CDB7DEB7F1
:1034700020912702243031F522E0298380589109D8
:103480009B838A8383E08093E9008FEF9091E8002B
:10349000815095FD06C095ED9A95F1F700008111D8
:1034A000F5CF8091E80085FF0DC050E040E063E07B
:1034B00070E0CE0101960E94591C8091E8008E7741
:1034C0008093E8000F900F900F90DF91CF910895B7
:1034D0009C01809127028430F9F482E08093E90016
:1034E0009FEF8091E800915085FD06C085ED8A959B
:1034F000F1F700009111F5CF8091E80085FF0CC035
:1035000050E040E065E070E0C9010E94591C8091E4
:10351000E8008E778093E8000895CF93DF93EC0165
:10352000809127028430F1F4909112019923E9F0FF
:103530009091210297FF19C08093E9008FEF90913D
:10354000E800815095FD06C095E19A95F1F70000DD
:103550008111F5CF8091E80050E040E060E270E03A
:1035600085FD1AC0DF91CF91089581E08093E90035
:103570008FEF9091E800815095FD06C095ED9A95EA
:10358000F1F700008111F5CF8091E80085FFEACFC7
:1035900050E040E068E070E0CE010E94591C80914C
:1035A000E8008E778093E80080E2FE01ABEFB1E0A7
:1035B00001900D928A95E1F7D5CF80912602811175
:1035C00009C00E94E91D0E94461E8091E2008460AD
:1035D0008093E200089510922602089508950895B8
:1035E0000C94C91542E061EC81E00E94671D42E045
:1035F00061EC82E00E94671D42E061EC83E00E9482
:10360000671D42E261EC84E00C94671D8091290201
:10361000833009F455C030F4813071F1823009F4FF
:1036200091C008958A3009F47DC08B3009F463C0DD
:10363000893009F044C080912802813209F03FC0EE
:1036400080912C0290912D02009711F00397B9F50B
:103650008091E800877F8093E8008091E80082FFF6
:103660002AC08091F10080931B028091E8008B7743
:103670008093E8000C949B1D80912802813AF9F414
:103680008091E800877F8093E80080912C029091E0
:103690002D02892B61F460E28BEF91E070E00E94D3
:1036A000A81C8091E8008B778093E800089560E083
:1036B00090E080E0F3CF809127028111CECF089572
:1036C00080912802813AD9F780912C0290912D02A5
:1036D000892BA9F78091E800877F8093E80080918B
:1036E000E80080FFFCCF809112018093F10080916F
:1036F000E8008E77BDCF80912802813201F780915A
:103700002C0290912D02892BD1F68091E800877FC1
:103710008093E8000E949B1D80912A0280931201F1
:103720000C94480E80912802813249F68091E8007D
:10373000877F8093E8000E949B1D80912B028093DD
:103740001C02089580912802813A09F0B8CF809137
:10375000E800877F8093E8008091E80080FFFCCF3D
:1037600080911C02C2CF84B7877F84BF0FB6F894C4
:10377000A89580916000886180936000109260003D
:103780000FBE80E880936100109261000E94BB0927
:103790000E94E91D0E94461E8091E2008460809391
:1037A000E20078940E94C8200E94BD0988E091E060
:1037B0000E94670980912702853019F00E94C30991
:1037C000F9CF0E94861580912502882399F30E94E3
:1037D000B415882379F30E94431CECCF292F33279B
:1037E0002330310579F158F421303105F1F02230E0
:1037F000310519F190E080E030E020E01AC021327C
:10380000310599F122323105A9F7643098F770E05B
:10381000FB01EE0FFF1FE95DFE4F208131816D5DE1
:103820007E4FFB01808190E004C082E190E029E4BA
:1038300037E0FA013183208308958DE690E02CED86
:1038400036E0F7CF99278130910561F028F0029793
:1038500089F6ECEAF6E002C0E8EDF6E0849190E04B
:103860009F01E7CFE0ECF6E0F9CF643008F0C2CF7B
:10387000E62FF0E0EE0FFF1FE15DFE4F208131816A
:1038800089E090E0D6CF80E189BD82E189BD09B4AD
:1038900000FEFDCF8091D8008F7D8093D80080916D
:1038A000E00082608093E0008091E00081FDFCCF29
:1038B0000895AF92BF92CF92DF92FF920F931F9322
:1038C000CF93DF936C01EB018A010E94BA1DF82EA1
:1038D000811123C00115110539F0F8018081918112
:1038E000C81BD90BC80ED91EB12CA12C2097A9F04A
:1038F0008091E80085FD22C08091E8008E7780935A
:10390000E80001151105A1F0F80180819181A80E50
:10391000B91EB182A08285E0F82E8F2DDF91CF9164
:103920001F910F91FF90DF90CF90BF90AF900895BF
:103930000E94BA1D8823D1F2F82EEFCFF6018191B3
:103940006F018093F1002197FFEFAF1ABF0ACECF2E
:10395000FC0180912E0290912F0286179707A0F00C
:103960006115710529F49091E8009E779093E80025
:1039700090E06115710551F4911108C08091E80043
:1039800082FF35C080E00895BC01F2CF809127020C
:103990008823C9F18530C9F18091E80083FD31C0E9
:1039A0008091E80082FDEACF8091E80080FFE1CFBE
:1039B0002091F3008091F200322F282F61157105BC
:1039C00019F02830310558F091E02830310509F020
:1039D00090E02091E8002E772093E800CACF8191F3
:1039E0008093F100615071092F5F3F4FE7CF8091C5
:1039F0002702882341F0853041F08091E80083FF61
:103A0000BDCF81E0089582E0089583E00895FC0130
:103A100080912E0290912F0286179707A0F06115D2
:103A2000710529F48091E8008E778093E80090E09A
:103A30006115710551F4911108C08091E80082FF71
:103A400036C080E00895BC01F2CF80912702882320
:103A5000D1F18530D1F18091E80083FD32C08091B1
:103A6000E80082FDEACF8091E80080FFE1CF20915D
:103A7000F3008091F200322F282F6115710519F0A3
:103A80002830310558F091E02830310509F090E0F8
:103A90008091E8008E778093E800CACF849180936C
:103AA000F1003196615071092F5F3F4FE6CF809151
:103AB0002702882341F0853041F08091E80083FFA0
:103AC000BCCF81E0089582E0089583E00895982FA7
:103AD000973028F08F708093E90081E008959093EB
:103AE000E900242F762F50E0981731F07091EC0008
:103AF0002091ED005091F00021FD02C09F5FE8CFC2
:103B00003091EB003E7F3093EB003091ED003D7F34
:103B10003093ED003091EB0031603093EB00709307
:103B2000EC002093ED005093F0002091EE0027FD73
:103B3000E5CF80E008958091280287FF13C080912F
:103B4000E80082FF06C08091E8008B778093E80050
:103B500004C0809127028111F2CF0895809127023D
:103B60008823D9F38091E80080FFF8CF8091E800A6
:103B70008E77ECCF2091E4003091E50085E69091BE
:103B8000EC0090FF06C09091E80090FF06C080E036
:103B900008959091E80092FDFACF90912702992321
:103BA00091F0953091F09091EB0095FD10C040910F
:103BB000E4005091E5002417350709F381509A017C
:103BC000F1F684E0089582E0089583E0089581E0AD
:103BD00008950E94571E0E945F1EE0EEF0E0808173
:103BE00081608083E8EDF0E080818F77808319BC6D
:103BF000A7EDB0E08C918E7F8C9380818F7E808347
:103C00001092260208950F931F93CF93DF930E9483
:103C1000571E0E945F1EC8EDD0E088818F77888391
:103C200088818068888388818F7D888319BC109201
:103C3000270210922302109225021092240200EE15
:103C400010E0F80180818B7F808388818160888388
:103C500042E060E080E00E94671DE1EEF0E08081DC
:103C60008E7F8083E2EEF0E08081816080838081BE
:103C700088608083F80180818E7F80838881806165
:103C80008883DF91CF911F910F910895E8EDF0E0C7
:103C900080818F7E8083E7EDF0E08081816080838A
:103CA00084E082BF81E0809326020C94031EE8ED3D
:103CB000F0E080818E7F80831092E2000895109260
:103CC000DA001092E10008951F920F920FB60F9242
:103CD00011242F933F934F935F936F937F938F9311
:103CE0009F93AF93BF93EF93FF938091E10082FF87
:103CF0000BC08091E20082FF07C08091E1008B7FC2
:103D00008093E1000E94C7208091DA0080FF19C0F3
:103D10008091D80080FF15C08091DA008E7F80935B
:103D2000DA008091D90080FF94C080E189BD82E1F2
:103D300089BD09B400FEFDCF81E0809327020E9477
:103D4000DD1A8091E10080FF19C08091E20080FFC0
:103D500015C08091E2008E7F8093E2008091E200A6
:103D600080618093E2008091D80080628093D800C7
:103D700019BC85E0809327020E94EF1A8091E10030
:103D800084FF29C08091E20084FF25C080E189BDC5
:103D900082E189BD09B400FEFDCF8091D8008F7DFE
:103DA0008093D8008091E1008F7E8093E100809124
:103DB000E2008F7E8093E2008091E2008160809338
:103DC000E20080912302882309F449C084E08093B3
:103DD00027020E94F01A8091E10083FF29C08091A0
:103DE000E20083FF25C08091E100877F8093E1009E
:103DF00082E080932702109223028091E1008E7F5F
:103E00008093E1008091E2008E7F8093E2008091B8
:103E1000E20080618093E20042E060E080E00E9486
:103E2000671D8091F00088608093F0000E94EE1A78
:103E3000FF91EF91BF91AF919F918F917F916F9182
:103E40005F914F913F912F910F900FBE0F901F9058
:103E5000189519BC109227020E94EB1A72CF80911C
:103E6000E30087FD02C081E0B2CF83E0B0CF1F92B4
:103E70000F920FB60F9211242F933F934F935F939E
:103E80006F937F938F939F93AF93BF93CF93EF9352
:103E9000FF93C091E900CF708091EC001092E9008F
:103EA0008091F000877F8093F00078940E94731FC8
:103EB0001092E9008091F00088608093F000C09338
:103EC000E900FF91EF91CF91BF91AF919F918F91B9
:103ED0007F916F915F914F913F912F910F900FBE06
:103EE0000F901F9018951F93CF93DF93CDB7DEB738
:103EF000AA970FB6F894DEBF0FBECDBFE8E2F2E09E
:103F00008091F100819322E0E033F207C9F70E942B
:103F1000061B8091E80083FF42C0809128029091A7
:103F200029029A3008F03BC0E92FF0E0E656F04E47
:103F30000C942922A41FC81FCF1FC81FCF1F2320E6
:103F40004520CF1F9A20A720803879F0823839F594
:103F500080912C028F708093E9008091EB0085FBAB
:103F6000882780F91092E90006C080912402909180
:103F70002502911182609091E800977F9093E8006C
:103F80008093F1001092F1008091E8008E772DC0AF
:103F9000282F2D7F21F48823D1F0823059F1809190
:103FA000E80083FF0AC08091E800877F8093E800E3
:103FB0008091EB0080628093EB00AA960FB6F89494
:103FC000DEBF0FBECDBFDF91CF911F9108958091CD
:103FD0002A02813021F7933009F080E08093250296
:103FE0001092E9008091E800877F8093E8000E94AA
:103FF0009B1DD5CF80912A028111F2CF80912C0296
:104000008F7069F28093E9002091EB0020FFE8CFE8
:10401000933031F48091EB0080628093EB00E0CF2D
:104020009091EB0090619093EB0021E030E001C0B3
:10403000220F8A95EAF72093EA001092EA00809115
:10404000EB008860EACF8111AACF10912A021F7776
:104050008091E3008078812B8093E3008091E800D9
:10406000877F8093E8000E949B1D8091E80080FF7D
:10407000FCCF8091E30080688093E30083E011111E
:1040800001C082E0809327028ACF8058823008F0F6
:1040900086CF80912A0290912B028C3D23E09207DB
:1040A000A1F583E08A838AE289834FB7F894DE0121
:1040B000139620E03EE051E2E32FF0E050935700EA
:1040C000E49120FF03C0E295EF703F5FEF708E2F09
:1040D00090E0EA30C0F0C7968D939D932F5F243116
:1040E00059F74FBF8091E800877F8093E8006AE22C
:1040F00070E0CE0101960E94A81C8091E8008B77A9
:104100008093E8004CCFC096E7CFAE014F5F5F4F82
:1041100060912C020E94EE1BBC01892B09F43FCF59
:104120009091E800977F9093E80089819A810E949E
:10413000071DE3CF803809F032CF8091E800877FF8
:104140008093E800809123028093F1001DCF8111BC
:1041500026CF90912A02923008F021CF8091E8007A
:10416000877F8093E800909323020E949B1D80919B
:104170002302882331F084E0809327020E94F21A00
:104180000ECF8091E30087FDF6CF81E0F5CF089553
:10419000CF9380912702882399F0C091E900CF70D6
:1041A0008091EC0080FD0EC080E0C82B1092E900E9
:1041B0008091E80083FD0E94731FCF70C093E900D7
:1041C000CF91089580E8F1CF0E94EB206894B1115F
:1041D0000C947A2108950E945F2188F09F5798F0EF
:1041E000B92F9927B751B0F0E1F0660F771F881FFC
:1041F000991F1AF0BA95C9F714C0B13091F00E9416
:104200007921B1E008950C947921672F782F8827C0
:10421000B85F39F0B93FCCF3869577956795B3953C
:10422000D9F73EF490958095709561957F4F8F4FAB
:104230009F4F0895E89409C097FB3EF490958095B0
:10424000709561957F4F8F4F9F4F9923A9F0F92F5C
:1042500096E9BB279395F695879577956795B795DA
:10426000F111F8CFFAF4BB0F11F460FF1BC06F5FC0
:104270007F4F8F4F9F4F16C0882311F096E911C0D2
:10428000772321F09EE8872F762F05C0662371F0F3
:1042900096E8862F70E060E02AF09A95660F771F07
:1042A000881FDAF7880F9695879597F9089557FD37
:1042B0009058440F551F59F05F3F71F04795880F94
:1042C00097FB991F61F09F3F79F08795089512162B
:1042D00013061406551FF2CF4695F1DF08C01616D7
:1042E00017061806991FF1CF869571056105089488
:1042F0000895E894BB2766277727CB0197F908959F
:104300000E9493210C9404220E94F62138F00E940E
:10431000FD2120F0952311F00C94ED210C94F32154
:1043200011240C947A210E94572170F3959FC1F3B8
:10433000950F50E0551F629FF001729FBB27F00D53
:10434000B11D639FAA27F00DB11DAA1F649F6627A8
:10435000B00DA11D661F829F2227B00DA11D621FF7
:10436000739FB00DA11D621F839FA00D611D221FB1
:10437000749F3327A00D611D231F849F600D211D95
:10438000822F762F6A2F11249F5750409AF0F1F018
:1043900088234AF0EE0FFF1FBB1F661F771F881F81
:1043A00091505040A9F79E3F510580F00C94ED21AB
:1043B0000C947A215F3FE4F3983ED4F38695779589
:1043C0006795B795F795E7959F5FC1F7FE2B880F27
:1043D000911D9695879597F9089597F99F6780E8BD
:1043E00070E060E008959FEF80EC089500240A9447
:1043F0001616170618060906089500240A941216C0
:104400001306140605060895092E0394000C11F4F2
:10441000882352F0BB0F40F4BF2B11F460FF04C09F
:104420006F5F7F4F8F4F9F4F089597FB072E16F4B6
:10443000009407D077FD09D00E942F2207FC05D0F9
:104440003EF4909581959F4F0895709561957F4FAB
:104450000895EE0FFF1F0590F491E02D0994AA1B1B
:10446000BB1B51E107C0AA1FBB1FA617B70710F05F
:10447000A61BB70B881F991F5A95A9F78095909591
:10448000BC01CD010895F999FECF92BD81BDF89A86
:10449000992780B50895A8E1B0E042E050E00C947F
:1044A0006B22262FF999FECF92BD81BDF89A019714
:1044B00000B4021639F01FBA20BD0FB6F894FA9A6C
:1044C000F99A0FBE08950196272F0E9452220C944C
:1044D0005122DC01CB01FC01F999FECF06C0F2BDEF
:1044E000E1BDF89A319600B40D9241505040B8F7B2
:0644F0000895F894FFCFCF
:1044F600CD012808140A321EFB198D1A681A321AC1
:10450600FE1901F4F53534C697669490919293F6A8
:10451600333236404D36391708CA0794075B07EE23
:08452600060707200739070012
:00000001FF
